S00E0000536C617665312E73726563EA
S11300000C9434000C9446000C9446000C94460066
S11300100C9446000C9446000C9446000C94AC00DE
S11300200C9446000C9446000C9446000C94460034
S11300300C9446000C9446000C9446000C94460024
S11300400C9446000C9446000C9499000C944600C1
S11300500C9446000C9446000C9446000C94460004
S11300600C9446000C94460011241FBECFEFD8E038
S1130070DEBFCDBF21E0A0E0B1E001C01D92A530FC
S1130080B207E1F70E945D000C9411010C9400008A
S1130090F8940E94BE000E94D30084B1816084B9A8
S11300A082E08093B00096E09093B1009AEF909331
S11300B0B30080937000789408950E944800809162
S11300C001018823B9F080910201813339F482E37C
S11300D090E090930401809303010AC0809102018F
S11300E0823331F480E092E0909304018093030121
S11300F0109201012091030130910401A0EDB7E0B9
S11301000E9402012FEF33E040E050E00E94E00043
S1130110C9018C509E4F0E94CE008091000188231B
S113012021F085B1816085B9CACF85B18E7F85B94B
S1130130C6CF1F920F920FB60F9211248F93809106
S1130140C6008093020181E0809301018F910F909A
S11301500FBE0F901F9018951F920F920FB60F921B
S113016011248F93809100018F5F8170809300012F
S11301708F910F900FBE0F901F90189584B18260DD
S113018084B982E88093800082E18093810080E2D8
S11301909EE490938700809386000895909389004D
S11301A080938800089587E690E09093C50080933B
S11301B0C40088E98093C10086E08093C20008955A
S11301C0A1E21A2EAA1BBB1BFD010DC0AA1FBB1F57
S11301D0EE1FFF1FA217B307E407F50720F0A21BC9
S11301E0B30BE40BF50B661F771F881F991F1A9436
S11301F069F760957095809590959B01AC01BD0160
S1130200CF010895A29FB001B39FC001A39F700DB9
S1130210811D1124911DB29F700D811D1124911D0A
S10902200895F894FFCFDD
S9030000FC
