S00E0000536C617665312E73726563EA
S11300000C943B000C9458000C9458000C94580029
S11300100C9458000C9458000C9458000C94D20280
S11300200C9458000C9458000C9458000C945800EC
S11300300C9458000C9458000C9458000C945800DC
S11300400C9458000C94C3020C9458000C9458005F
S11300500C9458000C9458000C9458000C945800BC
S11300600C9458000C94580053035A0361036B0317
S113007075037F03890311241FBECFEFD8E0DEBFD1
S1130080CDBF11E0A0E0B1E0ECEBF9E002C00590D7
S11300900D92A230B107D9F721E0A2E0B1E001C08E
S11300A01D92AC30B207E1F70E94D7010C94DC0436
S11300B00C940000CF93DF93D82FC62F0E944F01DA
S11300C082E50E9475018D2F80680E9475018C2F36
S11300D00E9475010E946D01DF91CF910895CF9325
S11300E0DF93D82FC62F61E080E00E945A008FED85
S11300F09EE20197F1F700C0000063E080E00E94F7
S11301005A006D2F81E00E945A006C2F8FE00E94EC
S11301105A00DF91CF9108950F931F93CF93DF93EC
S113012000D0CDB7DEB78C010E944F0182E50E945A
S1130130750184E90E9475010E945E0183E50E94B5
S1130140750161E0CE0101960E94890161E0CE0152
S113015002960E94890180E09A812981822BF8010C
S11301609783868361E0CE0101960E94890161E054
S1130170CE0102960E94890180E09A812981822B16
S1130180F8019183808361E0CE0101960E94890188
S113019061E0CE0102960E94890180E09A81298162
S11301A0822BF8019383828361E0CE0101960E9441
S11301B0890160E0CE0102960E94890180E09A8163
S11301C02981822BF801958384830E946D010F900D
S11301D00F90DF91CF911F910F9108950F931F936B
S11301E0CF938B019C01C42F87B18F7C87B9E9EB36
S11301F0F0E080818C7F8083443079F018F44130C2
S113020031F023C0403191F04034C9F01EC0E9EB15
S1130210F0E080818C7F80831EC0E9EBF0E0808178
S11302208D7F808380818160808315C0E9EBF0E05D
S113023080818E7F80838081826080830CC0E9EB23
S1130240F0E080818360808306C0E9EBF0E0808188
S11302508C7F8083C1E060E074E284EF90E0A901C8
S113026098010E94B404CA01B9016051710981095D
S113027091094C2F50E09A01220F331F032E000CDA
S1130280440B550B0E94B4042093B800ECEBF0E04F
S1130290808184608083CF911F910F91089584EAB7
S11302A08093BC008091BC008823E4F79091B9004E
S11302B0987F81E0983009F080E0089584EA809383
S11302C0BC008091BC008823E4F79091B900987F2A
S11302D081E0903109F080E0089584E98093BC00C6
S11302E08091BC0084FDFCCF08958093BB0084E81A
S11302F08093BC008091BC008823E4F78091B9000E
S1130300887F883121F0883219F481E0089581E0F2
S11303100895FC01662321F084EC8093BC0003C0A3
S113032084E88093BC009091BC009923E4F79091F9
S1130330B900987F662311F0903549F4611102C029
S1130340983539F48091BB00808381E0089580E082
S1130350089580E008958AB1846B8AB98BB18B7C4F
S11303608BB984B1816084B920E040E060E080E42E
S11303700E9424038CB580688CBD41E060EA76E875
S113038081E090E00E94EE0061E08BEE0E946F003D
S11303900E9400030E94150388EE93E00E9410035C
S11303A0E0E7F0E080818D7F8083789408950E9457
S11303B0AB0184E091E00E948C009BB180E289272C
S11303C08BB980910A0190910B014F9708F4CBC02F
S11303D004E011E0F801C481D581CE01A0E0B0E0D1
S11303E0AC01BD01440F551F661F771F6A017B01D5
S11303F0C80ED91EEA1EFB1EC701B6010E94900357
S11304004B015C01F801E080F18002811381B701A6
S1130410600F711F80E090E00E9490032AE939E99F
S113042049E95FE30E94D2039B01AC01C501B40119
S11304300E94CD0318167CF5C333D10560F181E326
S1130440809301018BB180618BB98BB18B7F8BB9A8
S1130450809100018133D1F08BB180688BB988EC35
S113046090E09093030180930201E0E7F0E0808143
S11304708260808381E380930001FFEF23EC89E0B5
S1130480F15020408040E1F700C000008CED95E081
S11304900E9410036EC0B70180E090E00E949003B8
S11304A06B017C01B80180E090E00E94900320E0A1
S11304B030E040E650E40E94D2039B01AC01C70146
S11304C0B6010E94CD0318160CF03FC0BE0180E0B7
S11304D090E00E94900326E636E646EE5FE30E9433
S11304E0D2039B01AC01C701B6010E94CD031816CB
S11304F064F582E3809301018BB184608BB98BB185
S11305008F7E8BB9809100018233D1F08BB18F77CC
S11305108BB988EC90E09093030180930201E0E7AB
S1130520F0E080818260808382E3809300019FEF0A
S1130530E3ECF9E09150E040F040E1F700C0000046
S11305408CED95E00E94100314C080E380930101B8
S11305508BB18B7E8BB983E38093000188EE93E0AB
S11305600E94100306C080E3809301018BB18B7E4F
S11305708BB92FEF80E792E0215080409040E1F763
S113058000C0000016CF1F920F920FB60F921124D5
S11305908F93809101018EBD8F910F900FBE0F90AC
S11305A01F9018951F920F920FB60F9211248F93DC
S11305B09F93EF93FF938091020190910301892B04
S11305C071F095B181E0892785B9809102019091FC
S11305D003010197909303018093020108C085B140
S11305E08E7F85B9E0E7F0E080818D7F8083FF9185
S11305F0EF919F918F910F900FBE0F901F901895C0
S113060084B1826084B982E88093800082E180931F
S1130610810080E29EE49093870080938600089591
S11306209093890080938800089584B1816084B98F
S113063082E08093B00096E09093B1009AEF90939B
S1130640B300809370000895E82FE071F0E03097D4
S113065051F094B19C6294B994B19F7E94B995B1D0
S1130660946095B906C094B1906194B994B1937DA6
S113067094B9462B242B206C2CBDEF2B21F09CB578
S113068090619CBD03C09CB59F7E9CBDE82FE77024
S11306908E2F90E08730910508F041C0FC01EC5C9E
S11306A0FF4F0C94D6048CB58C7F8CBD8DB58160C6
S11306B08DBD08958CB58C7F8CBD8DB58E7F8DBD21
S11306C008958CB581608CBD8CB58D7F8CBD8DB546
S11306D081608DBD08958CB581608CBD8CB58D7F96
S11306E08CBD8DB58E7F8DBD08958CB58E7F8CBDF0
S11306F08CB582608CBD8DB581608DBD08958CB53F
S11307008E7F8CBD8CB582608CBD8DB58E7F8DBD8A
S113071008958CB583608CBD8DB58E7F8DBD089595
S1130720E89409C097FB3EF4909580957095619587
S11307307F4F8F4F9F4F9923A9F0F92F96E9BB273D
S11307409395F695879577956795B795F111F8CFB9
S1130750FAF4BB0F11F460FF1BC06F5F7F4F8F4F24
S11307609F4F16C0882311F096E911C0772321F01A
S11307709EE8872F762F05C0662371F096E8862FB2
S113078070E060E02AF09A95660F771F881FDAF709
S1130790880F9695879597F908950E943F0408F469
S11307A08FEF08950E94E5030C947A040E946C0470
S11307B038F00E94730420F0952311F00C94630424
S11307C00C94690411240C94AE040E948B0470F3FD
S11307D0959FC1F3950F50E0551F629FF001729FE2
S11307E0BB27F00DB11D639FAA27F00DB11DAA1FF1
S11307F0649F6627B00DA11D661F829F2227B00D3E
S1130800A11D621F739FB00DA11D621F839FA00DC8
S1130810611D221F749F3327A00D611D231F849F18
S1130820600D211D822F762F6A2F11249F5750406F
S11308309AF0F1F088234AF0EE0FFF1FBB1F661FEA
S1130840771F881F91505040A9F79E3F510580F0B3
S11308500C9463040C94AE045F3FE4F3983ED4F329
S1130860869577956795B795F795E7959F5FC1F757
S1130870FE2B880F911D9695879597F90895990FEA
S11308800008550FAA0BE0E8FEEF16161706E80756
S1130890F907C0F012161306E407F50798F0621B77
S11308A0730B840B950B39F40A2661F0232B242B4C
S11308B0252B21F408950A2609F4A140A6958FEF6B
S11308C0811D811D089597F99F6780E870E060E0BD
S11308D008959FEF80EC089500240A9416161706D5
S11308E018060906089500240A941216130614061D
S11308F005060895092E0394000C11F4882352F080
S1130900BB0F40F4BF2B11F460FF04C06F5F7F4F37
S11309108F4F9F4F089557FD9058440F551F59F01E
S11309205F3F71F04795880F97FB991F61F09F3FD8
S113093079F087950895121613061406551FF2CF01
S11309404695F1DF08C0161617061806991FF1CF51
S113095086957105610508940895E894BB27662778
S11309607727CB0197F90895A1E21A2EAA1BBB1B86
S1130970FD010DC0AA1FBB1FEE1FFF1FA217B30767
S1130980E407F50720F0A21BB30BE40BF50B661F7D
S1130990771F881F991F1A9469F760957095809541
S11309A090959B01AC01BD01CF010895EE0FFF1F8F
S10F09B00590F491E02D0994F894FFCF19
S10509BC3030D5
S9030000FC
