:100000000C943B000C944D000C944D000C944D004E
:100010000C944D000C944D000C944D000C947E02F9
:100020000C944D000C944D000C944D000C944D001C
:100030000C944D000C944D000C944D000C944D000C
:100040000C944D000C946F020C944D000C944D00D8
:100050000C944D000C944D000C944D000C944D00EC
:100060000C944D000C944D00EC02F302FA020403D0
:100070000E031803220311241FBECFEFD8E0DEBF0A
:10008000CDBF21E0A0E0B1E001C01D92AC30B207CD
:10009000E1F70E94C4010C9475040C940000CF9306
:1000A000DF93D82FC62F0E94440182E50E946A0187
:1000B0008D2F80680E946A018C2F0E946A010E9425
:1000C0006201DF91CF910895CF93DF93D82FC62F90
:1000D00061E080E00E944F008FED9EE20197F1F712
:1000E00000C0000063E080E00E944F006D2F81E0BF
:1000F0000E944F006C2F8FE00E944F00DF91CF9144
:1001000008950F931F93CF93DF9300D0CDB7DEB741
:100110008C010E94440182E50E946A0184E90E94E8
:100120006A010E94530183E50E946A0161E0CE01E9
:1001300001960E947E0161E0CE0102960E947E013E
:1001400080E09A812981822BF8019783868361E080
:10015000CE0101960E947E0161E0CE0102960E94CE
:100160007E0180E09A812981822BF801918380832E
:1001700061E0CE0101960E947E0161E0CE0102960F
:100180000E947E0180E09A812981822BF80193836D
:10019000828361E0CE0101960E947E0160E0CE0183
:1001A00002960E947E0180E09A812981822BF801CB
:1001B000958384830E9462010F900F90DF91CF910D
:1001C0001F910F9108950F931F93CF938B019C0163
:1001D000C42F87B18F7C87B9E9EBF0E080818C7FF9
:1001E0008083443079F018F4413031F023C040313D
:1001F00091F04034C9F01EC0E9EBF0E080818C7FC3
:1002000080831EC0E9EBF0E080818D7F8083808158
:100210008160808315C0E9EBF0E080818E7F808370
:100220008081826080830CC0E9EBF0E08081836094
:10023000808306C0E9EBF0E080818C7F8083C1E0A1
:1002400060E074E284EF90E0A90198010E944D04FF
:10025000CA01B90160517109810991094C2F50E01F
:100260009A01220F331F032E000C440B550B0E94E2
:100270004D042093B800ECEBF0E080818460808333
:10028000CF911F910F91089584EA8093BC008091D3
:10029000BC008823E4F79091B900987F81E0983002
:1002A00009F080E0089584EA8093BC008091BC004E
:1002B0008823E4F79091B900987F81E0903109F0AC
:1002C00080E0089584E98093BC008091BC0084FDA7
:1002D000FCCF08958093BB0084E88093BC0080919C
:1002E000BC008823E4F78091B900887F883121F031
:1002F000883219F481E0089581E00895FC016623B5
:1003000021F084EC8093BC0003C084E88093BC009F
:100310009091BC009923E4F79091B900987F6623EF
:1003200011F0903549F4611102C0983539F480918B
:10033000BB00808381E0089580E0089580E0089507
:100340008AB184638AB98BB18B7C8BB920E040E0A1
:1003500060E080E40E94BD028CB580688CBD88EEB0
:1003600093E00E94A90241E060EA76E881E090E033
:100370000E94E30061E08BEE0E9464000E949902FB
:100380000E94AE02789408950E94A00184E091E05A
:100390000E9481009BB180E289278BB98BB18B7E53
:1003A0008BB980910A0190910B014F9708F48DC091
:1003B00004E011E0F801C481D581CE01A0E0B0E0F5
:1003C000AC01BD01440F551F661F771F6A017B01F9
:1003D000C80ED91EEA1EFB1EC701B6010E942903E2
:1003E0004B015C01F801E080F18002811381B701CB
:1003F000600F711F80E090E00E9429032AE939E92B
:1004000049E95FE30E946B039B01AC01C501B401A4
:100410000E9466031816A4F4C333D10588F08BB18B
:1004200080618BB981E3809300018CED95E00E949F
:10043000A90286E292E0909303018093020145C0F5
:10044000B70180E090E00E9429036B017C01B801B4
:1004500080E090E00E94290320E030E040E650E494
:100460000E946B039B01AC01C701B6010E946603A9
:10047000181624F5BE0180E090E00E94290326E6CC
:1004800036E646EE5FE30E946B039B01AC01C701B9
:10049000B6010E94660318168CF48BB184608BB988
:1004A00082E3809300018CED95E00E94A90288EE22
:1004B00093E0909303018093020107C080E380934F
:1004C000000180E293E00E94A902FFEF21EE84E0A8
:1004D000F15020408040E1F700C0000057CF1F924C
:1004E0000F920FB60F9211248F93809100018EBD51
:1004F0008F910F900FBE0F901F9018951F920F9223
:100500000FB60F9211248F93809101018F5F81703C
:1005100080930101882321F085B1816085B903C0F2
:1005200085B18E7F85B98F910F900FBE0F901F9070
:10053000189584B1826084B982E88093800082E15A
:100540008093810080E29EE49093870080938600F0
:1005500008959093890080938800089584B1816004
:1005600084B982E08093B00096E09093B1009AEF56
:100570009093B300809370000895E82FE071F0E04D
:10058000309751F094B19C6294B994B19F7E94B924
:1005900095B1946095B906C094B1906194B994B145
:1005A000937D94B9462B242B206C2CBDEF2B21F08E
:1005B0009CB590619CBD03C09CB59F7E9CBDE82FFF
:1005C000E7708E2F90E08730910508F041C0FC0164
:1005D000EC5CFF4F0C946F048CB58C7F8CBD8DB59B
:1005E00081608DBD08958CB58C7F8CBD8DB58E7F5F
:1005F0008DBD08958CB581608CBD8CB58D7F8CBD13
:100600008DB581608DBD08958CB581608CBD8CB534
:100610008D7F8CBD8DB58E7F8DBD08958CB58E7F01
:100620008CBD8CB582608CBD8DB581608DBD08950B
:100630008CB58E7F8CBD8CB582608CBD8DB58E7F68
:100640008DBD08958CB583608CBD8DB58E7F8DBDBD
:100650000895E89409C097FB3EF4909580957095B5
:1006600061957F4F8F4F9F4F9923A9F0F92F96E9FE
:10067000BB279395F695879577956795B795F11173
:10068000F8CFFAF4BB0F11F460FF1BC06F5F7F4F10
:100690008F4F9F4F16C0882311F096E911C0772322
:1006A00021F09EE8872F762F05C0662371F096E82B
:1006B000862F70E060E02AF09A95660F771F881FFA
:1006C000DAF7880F9695879597F908950E94D803D1
:1006D00008F48FEF08950E947E030C9413040E9487
:1006E000050438F00E940C0420F0952311F00C94BE
:1006F000FC030C94020411240C9447040E9424046B
:1007000070F3959FC1F3950F50E0551F629FF00164
:10071000729FBB27F00DB11D639FAA27F00DB11D7D
:10072000AA1F649F6627B00DA11D661F829F222706
:10073000B00DA11D621F739FB00DA11D621F839F8D
:10074000A00D611D221F749F3327A00D611D231F63
:10075000849F600D211D822F762F6A2F11249F57B1
:1007600050409AF0F1F088234AF0EE0FFF1FBB1FB4
:10077000661F771F881F91505040A9F79E3F510573
:1007800080F00C94FC030C9447045F3FE4F3983E24
:10079000D4F3869577956795B795F795E7959F5F1D
:1007A000C1F7FE2B880F911D9695879597F90895AF
:1007B000990F0008550FAA0BE0E8FEEF1616170672
:1007C000E807F907C0F012161306E407F50798F0DA
:1007D000621B730B840B950B39F40A2661F0232BF3
:1007E000242B252B21F408950A2609F4A140A6956F
:1007F0008FEF811D811D089597F99F6780E870E054
:1008000060E008959FEF80EC089500240A94161686
:10081000170618060906089500240A9412161306EE
:10082000140605060895092E0394000C11F488237C
:1008300052F0BB0F40F4BF2B11F460FF04C06F5F98
:100840007F4F8F4F9F4F089557FD9058440F551F6E
:1008500059F05F3F71F04795880F97FB991F61F042
:100860009F3F79F087950895121613061406551FB9
:10087000F2CF4695F1DF08C0161617061806991F25
:10088000F1CF86957105610508940895E894BB271A
:1008900066277727CB0197F90895A1E21A2EAA1BA4
:1008A000BB1BFD010DC0AA1FBB1FEE1FFF1FA21720
:1008B000B307E407F50720F0A21BB30BE40BF50B1D
:1008C000661F771F881F991F1A9469F760957095A6
:1008D000809590959B01AC01BD01CF010895EE0F6D
:0E08E000FF1F0590F491E02D0994F894FFCFCE
:00000001FF
