:100000000C943B000C9450000C9450000C94500045
:100010000C9450000C9450000C9450000C94500020
:100020000C9450000C9450000C9450000C94500010
:100030000C9450000C9450000C9450000C94500000
:100040000C9450000C9450000C9450000C945000F0
:100050000C9450000C9450000C9450000C945000E0
:100060000C9450000C94500067026E0275027F02DF
:10007000890293029D0211241FBECFEFD8E0DEBF9C
:10008000CDBF11E0A0E0B1E0EAE7FBE002C00590DF
:100090000D92A033B107D9F70E94A3010C94BB05C0
:1000A0000C9400000F931F93CF938B019C01C42FDE
:1000B00087B18F7C87B9E9EBF0E080818C7F80830A
:1000C000443079F018F4413031F023C0403191F0E0
:1000D0004034C9F01EC0E9EBF0E080818C7F808362
:1000E0001EC0E9EBF0E080818D7F8083808181609C
:1000F000808315C0E9EBF0E080818E7F8083808172
:10010000826080830CC0E9EBF0E0808183608083B3
:1001100006C0E9EBF0E080818C7F8083C1E060E085
:1001200074E284EF90E0A90198010E94A902CA013B
:10013000B90160517109810991094C2F50E09A0170
:10014000220F331F032E000C440B550B0E94A902F3
:100150002093B800ECEBF0E0808184608083CF9145
:100160001F910F91089584EA8093BC008091BC0098
:100170008823E4F79091B900987F81E0983009F0E6
:1001800080E0089584E98093BC008091BC0084FDE8
:10019000FCCF08958093BB0084E88093BC008091DD
:1001A000BC008823E4F78091B900887F883121F072
:1001B000883219F481E0089581E00895FC016623F6
:1001C00021F084EC8093BC0003C084E88093BC00E1
:1001D0009091BC009923E4F79091B900987F662331
:1001E00011F0903549F4611102C0983539F48091CD
:1001F000BB00808381E0089580E0089580E0089549
:100200009BB19370282F2C7F922B9BB995B19C7F2B
:100210008370892B85B9089588B1826088B985E09B
:100220008A95F1F7000088B18D7F88B987EC90E05E
:100230000197F1F700C00000089598B1977F98B931
:1002400098B19B7F98B90E9400010E940C0108950B
:1002500087B18E6087B98AB18C6F8AB984B18360A7
:1002600084B988B1817F88B92FEF83EC99E0215060
:1002700080409040E1F700C0000088E30E941D012B
:100280008FE19EE40197F1F700C0000088E30E942F
:100290001D019FEF23EC89E0915020408040E1F761
:1002A00000C000008CE00E941D0181E00E941D0141
:1002B0008FE39FE10197F1F700C0000086E00E9404
:1002C0001D01089598B1986098B998B19B7F98B92D
:1002D0000E9400010E940C010895CF93DF93EC016E
:1002E00003C00E946201219688818111FACFDF91BB
:1002F000CF910895811103C080E8860F02C080EC81
:10030000860F0E941D01089584B1846084B985B16F
:10031000846085B90E9428012FEF81EE94E021507E
:1003200080409040E1F700C0000020E040E060E045
:1003300083E50E94380241E060EA76E881E090E0DF
:100340000E9452000895CF93DF93CDB7DEB7629736
:100350000FB6F894DEBF0FBECDBF0E948401198294
:100360001A822FEF85EA9EE0215080409040E1F70D
:1003700000C0000085B18B7F85B981E00E94A40296
:100380008FE891E00197F1F700C0000080E00E9443
:10039000A4021EB585B1846085B90E94B30088238C
:1003A00099F081E10E94CA00813011F0803451F44B
:1003B00061E0CE0101960E94DE0060E0CE0102966F
:1003C0000E94DE000E94C20060E080E00E947A018C
:1003D00080E091E00E946D0160E081E00E947A017E
:1003E000113329F481E191E00E946D010BC01233B9
:1003F00029F487E191E00E946D0104C08DE191E054
:100400000E946D0189811F928F9383E291E09F93F7
:100410008F938E010D5F1F4F1F930F930E94D10288
:1004200065E081E00E947A01C8010E946D018A8125
:100430001F928F938AE291E09F938F931F930F9364
:100440000E94D1026BE081E00E947A01C8010E9403
:100450006D019FEF23EC89E0915020408040E1F74F
:1004600000C000000FB6F894DEBF0FBECDBF82CF34
:10047000E82FE071F0E0309751F094B19C6294B9AC
:1004800094B19F7E94B995B1946095B906C094B12A
:10049000906194B994B1937D94B9462B242B206438
:1004A0002CBDEF2B21F09CB590619CBD03C09CB589
:1004B0009F7E9CBDE82FE7708E2F90E087309105DE
:1004C00008F041C0FC01EC5CFF4F0C94CB028CB5F2
:1004D0008C7F8CBD8DB581608DBD08958CB58C7F72
:1004E0008CBD8DB58E7F8DBD08958CB581608CBD22
:1004F0008CB58D7F8CBD8DB581608DBD08958CB51B
:1005000081608CBD8CB58D7F8CBD8DB58E7F8DBD92
:1005100008958CB58E7F8CBD8CB582608CBD8DB5F9
:1005200081608DBD08958CB58E7F8CBD8CB5826049
:100530008CBD8DB58E7F8DBD08958CB583608CBDCF
:100540008DB58E7F8DBD08958EBD0DB407FEFDCF98
:100550000895A1E21A2EAA1BBB1BFD010DC0AA1F04
:10056000BB1FEE1FFF1FA217B307E407F50720F01C
:10057000A21BB30BE40BF50B661F771F881F991F97
:100580001A9469F760957095809590959B01AC01E0
:10059000BD01CF010895EE0FFF1F0590F491E02DEE
:1005A0000994AEE0B0E0E7EDF2E00C9492050D891D
:1005B0001E8986E08C831A8309838FEF9FE79E83D1
:1005C0008D83AE01475E5F4F6F89788DCE010196B6
:1005D0000E94F302EF81F885E00FF11F10822E9642
:1005E000E4E00C94AE05ABE0B0E0E9EFF2E00C948F
:1005F00084056C017B018A01FC01178216828381CC
:1006000081FFCCC1CE0101963C01F6019381F70137
:1006100093FD859193FF81917F01882309F4BAC1ED
:10062000853239F493FD859193FF81917F01853265
:1006300029F4B60190E00E94EA04E7CF912C212C26
:10064000312CFFE1F315D8F08B3279F038F4803299
:1006500079F08332A1F4232D20611DC08D3261F029
:10066000803369F4232D216016C0832D8260382EDB
:10067000E32DE4603E2E2AC0F32DF8601DC037FC48
:100680002DC020ED280F2A3040F08E32B9F436FC10
:1006900081C1232D2064322E19C036FE06C08AE0A7
:1006A000989E200D1124922E11C0EAE02E9E200D5E
:1006B0001124222EF32DF0623F2E08C08C3621F437
:1006C000832D8068382E02C0883641F4F70193FDEF
:1006D000859193FF81917F018111B3CF982F9F7DE9
:1006E0009554933028F40C5F1F4F9FE399830DC0FE
:1006F000833631F0833771F0833509F059C021C05A
:10070000F801808189830E5F1F4F88248394912C88
:10071000530113C02801F2E04F0E511CF801A080D4
:10072000B18036FE03C0692D70E002C06FEF7FEF2D
:10073000C5010E94DF044C018201F32DFF773F2E9B
:1007400016C0280122E0420E511CF801A080B180A1
:1007500036FE03C0692D70E002C06FEF7FEFC50168
:100760000E94D4044C01F32DF0683F2E820133FC2B
:100770001BC0822D90E088169906B0F4B60180E285
:1007800090E00E94EA042A94F4CFF50137FC8591A9
:1007900037FE81915F01B60190E00E94EA042110CA
:1007A0002A9421E0821A91088114910471F7E8C01B
:1007B000843611F0893641F5F80137FE07C06081B3
:1007C0007181828193810C5F1F4F08C060817181AC
:1007D000072E000C880B990B0E5F1F4FF32DFF7631
:1007E0003F2E97FF09C090958095709561957F4F3A
:1007F0008F4F9F4FF0683F2E2AE030E0A3010E9408
:100800002605882E861845C0853731F4232D2F7E86
:10081000B22E2AE030E025C0932D997FB92E8F3675
:10082000C1F018F4883579F0B5C0803719F08837F1
:1008300021F0B0C0E92FE061BE2EB4FE0DC0FB2D4B
:10084000F460BF2E09C034FE0AC0292F2660B22EE4
:1008500006C028E030E005C020E130E002C020E121
:1008600032E0F801B7FE07C0608171818281938117
:100870000C5F1F4F06C06081718180E090E00E5FC9
:100880001F4FA3010E942605882E8618FB2DFF7797
:100890003F2E36FE0DC0232D2E7FA22E891458F434
:1008A00034FE0BC032FC09C0832D8E7EA82E05C0FD
:1008B000B82CA32C03C0B82C01C0B92CA4FE0FC0C7
:1008C000FE01E80DF11D8081803321F49A2D997E7F
:1008D000A92E09C0A2FE06C0B394B39404C08A2D09
:1008E000867809F0B394A3FC11C0A0FE06C0B21430
:1008F00088F4280C922C9B180EC0B21460F4B60138
:1009000080E290E00E94EA04B394F7CFB21418F4A6
:100910002B1802C0982C212CA4FE10C0B60180E335
:1009200090E00E94EA04A2FE17C0A1FC03C088E781
:1009300090E002C088E590E0B6010CC08A2D867870
:1009400059F0A1FE02C08BE201C080E2A7FC8DE25B
:10095000B60190E00E94EA04891438F4B60180E3FD
:1009600090E00E94EA049A94F7CF8A94F301E80D8C
:10097000F11D8081B60190E00E94EA048110F5CF5C
:10098000222009F442CEB60180E290E00E94EA04FF
:100990002A94F6CFF6018681978102C08FEF9FEFF0
:1009A0002B96E2E10C94A005FC010590615070408B
:1009B0000110D8F7809590958E0F9F1F0895FC0128
:1009C0006150704001900110D8F7809590958E0F7E
:1009D0009F1F08950F931F93CF93DF93FB012381F4
:1009E00021FD03C08FEF9FEF2CC022FF16C0468170
:1009F0005781248135814217530744F4A081B18186
:100A00009D012F5F3F4F318320838C932681378157
:100A10002F5F3F4F3783268314C08B01EC01FB010E
:100A20000084F185E02D0995892BE1F6D801169611
:100A30008D919C911797019617969C938E9316977C
:100A4000CE01DF91CF911F910F910895FA01AA274E
:100A5000283051F1203181F1E8946F936E7F6E5F01
:100A60007F4F8F4F9F4FAF4FB1E03ED0B4E03CD0AF
:100A7000670F781F891F9A1FA11D680F791F8A1F92
:100A8000911DA11D6A0F711D811D911DA11D20D0F9
:100A900009F468943F912AE0269F11243019305DB3
:100AA0003193DEF6CF010895462F4770405D4193A4
:100AB000B3E00FD0C9F7F6CF462F4F70405D4A33F1
:100AC00018F0495D31FD4052419302D0A9F7EACFB9
:100AD000B4E0A6959795879577956795BA95C9F7E8
:100AE00000976105710508959B01AC010A2E0694DB
:100AF0005795479537952795BA95C9F7620F731F94
:100B0000841F951FA01D08952F923F924F925F92D0
:100B10006F927F928F929F92AF92BF92CF92DF920D
:100B2000EF92FF920F931F93CF93DF93CDB7DEB772
:100B3000CA1BDB0B0FB6F894DEBF0FBECDBF099406
:100B40002A88398848885F846E847D848C849B845D
:100B5000AA84B984C884DF80EE80FD800C811B816B
:100B6000AA81B981CE0FD11D0FB6F894DEBF0FBE9A
:0A0B7000CDBFED010895F894FFCF0A
:100B7A00434F4C20204449535420205045534F2082
:100B8A0000415A554C2000524F4A4F20004E4144D2
:100B9A00412000253364636D20002533646700001B
:00000001FF
