:100000000C9434000C9451000C9451000C94510049
:100010000C9451000C9451000C9451000C9451001C
:100020000C9451000C9451000C9451000C9451000C
:100030000C9451000C9451000C9451000C945100FC
:100040000C9451000C9451000C9451000C945100EC
:100050000C9451000C947D000C9451000C945100B0
:100060000C94F3000C94510011241FBECFEFD8E084
:10007000DEBFCDBF11E0A0E0B1E0E0E6F6E002C0F7
:1000800005900D92A230B107D9F721E0A2E0B1E0CE
:1000900001C01D92A930B207E1F70E94A6000C949E
:1000A0002E030C9400008F70806680937C00EAE73A
:1000B000F0E08FEA808310927B00808180648083EF
:1000C000089560910201709103016630710578F026
:1000D0006550710980EB94E00E94F901862F972FFB
:1000E0008135910530F48A30910528F0089580E536
:1000F000089580E508958AE008951F920F920FB643
:100100000F9211248F939F938091790090E09093A8
:100110000301809302019F918F910F900FBE0F906A
:100120001F90189597B19F7C97B9880F8093BA005C
:1001300085E48093BC0008958AB18C618AB984B14A
:10014000846084B985B18B7F85B908950E949C0035
:100150000E94E40188E00E94920080E00E94530027
:100160000E9419018BB180618BB90E944B018BB148
:100170008F7E8BB978940E946100809300010E9469
:10018000BA01809304018BB1837E8BB98091000109
:100190008F3040F48BB184608BB980E090E00E9496
:1001A000F40117C0809100018F3060F08091000150
:1001B000893240F48BB180618BB980EE9EE20E945F
:1001C000F40107C08BB188608BB988E39AE40E9480
:1001D000F4012FEF80E792E0215080409040E1F75A
:1001E00000C00000C8CF1F920F920FB60F921124CB
:1001F0008F938091B900887F883A41F48091000103
:100200008093BB0085EC8093BC000DC0883B41F41B
:10021000809104018093BB0085E88093BC0003C0FB
:1002200085EC8093BC008F910F900FBE0F901F90B4
:10023000189587B1886087B987B18B7F87B988B1F6
:10024000877F88B908953299FECF90E040E050E072
:10025000BA0113C088B1886088B90000440F551FE7
:10026000661F771F88B1877F88B90000329B04C062
:100270004F5F5F4F6F4F7F4F9F5F983158F388B14B
:10028000886088B9000088B1877F88B967FD7F6F73
:10029000CB01BA0108953F924F925F926F927F9285
:1002A0008F929F92AF92BF92CF92DF92EF92FF9286
:1002B0000F931F93CF93DF93C0E0612C712C812C9F
:1002C000912CD0E0512C312C412C23C00E942301D1
:1002D0006B017C01FF0CCC08DC2C7601262F372F1C
:1002E000482F592F6C2D7C2D8C2D9C2DA62CB72C96
:1002F000C82CD92CED2EF52C032D142D0E9425038E
:10030000622E732E842E952ED62F572E382E492EE0
:10031000CF5FCA30D8F20F2EFAE0AF2EF02DB12CFD
:10032000C12CD12CE12CF12C00E010E0262D372D32
:10033000482D592D6D2F752D832D942D0E9450021F
:100340002093050130930601409307015093080163
:10035000DF91CF911F910F91FF90EF90DF90CF90A1
:10036000BF90AF909F908F907F906F905F904F90D5
:100370003F9008950F931F930E9423010091050160
:10038000109106012091070130910801601B710B4B
:10039000820B930B24EA31E040E050E00E942F02F0
:1003A000822F022F132F242F352F33233CF00F3FA2
:1003B00011052105310509F01CF403C080E001C0DE
:1003C0008FEF1F910F91089584B1826084B982E804
:1003D0008093800082E18093810080E29EE490938C
:1003E0008700809386000895909389008093880009
:1003F0000895AA1BBB1B51E107C0AA1FBB1FA6176C
:10040000B70710F0A61BB70B881F991F5A95A9F7BD
:1004100080959095BC01CD010895A1E21A2EAA1BEA
:10042000BB1BFD010DC0AA1FBB1FEE1FFF1FA217A4
:10043000B307E407F50720F0A21BB30BE40BF50BA1
:10044000661F771F881F991F1A9469F7609570952A
:10045000809590959B01AC01BD01CF010895052EBB
:1004600097FB1EF400940E94460257FD07D00E949D
:100470000D0207FC03D04EF40C94460250954095B3
:10048000309521953F4F4F4F5F4F08959095809540
:10049000709561957F4F8F4F9F4F0895689401C06D
:1004A000E894F92FF12B12F00C948202A0E0B0E056
:1004B000ECE5F2E00C94F402092E059422F40E947B
:1004C000DE02112392F4F0E80F26FFEFE094F0949F
:1004D00000951095B094C094D094A194BF0ACF0A0F
:1004E000DF0AEF0AFF0A0F0B1F0B0E948D0207FCA9
:1004F0000E94DE02CDB7DEB7ECE00C9410036894E6
:1005000001C0E8948F929F92CF93DF930E948D0257
:10051000DF91CF919F908F90089588249924F401C2
:10052000E401B0E49F93AA279A158B049C04ED057F
:10053000FE05CF05D007A10798F4AD2FDC2FCF2FF4
:10054000FE2FE92D982C892E982F872F762F652F37
:10055000542F432F322F2227B85031F7BF9127C095
:100560001B2EBF91BB27220F331F441F551F661F31
:10057000771F881F991F881C991CEE1FFF1FCC1F17
:10058000DD1FAA1FBB1F8A149B04EC05FD05CE05C9
:10059000DF05A007B10748F08A189B08EC09FD09A0
:1005A000CE09DF09A00BB10B21601A94E1F62EF4FD
:1005B0009401AF01BE01CD01000C089560957095C6
:1005C0008095909530954095509521953F4F4F4F90
:1005D0005F4F6F4F7F4F8F4F9F4F08952F923F92E6
:1005E0004F925F926F927F928F929F92AF92BF9243
:1005F000CF92DF92EF92FF920F931F93CF93DF93EF
:10060000CDB7DEB7CA1BDB0B0FB6F894DEBF0FBE4B
:10061000CDBF09942A88398848885F846E847D8498
:100620008C849B84AA84B984C884DF80EE80FD809A
:100630000C811B81AA81B981CE0FD11D0FB6F89410
:10064000DEBF0FBECDBFED0108952A0D3B1D4C1D31
:100650005D1D6E1D7F1D801F911F0895F894FFCFB3
:02066000500048
:00000001FF
